{
  "_format": "hh-sol-artifact-1",
  "contractName": "World",
  "sourceName": "contracts/World.sol",
  "abi": [
    {
      "anonymous": false,
      "inputs": [
        {
          "indexed": true,
          "internalType": "address",
          "name": "sword",
          "type": "address"
        },
        {
          "indexed": true,
          "internalType": "uint256",
          "name": "tokenId",
          "type": "uint256"
        }
      ],
      "name": "ItemExported",
      "type": "event"
    },
    {
      "anonymous": false,
      "inputs": [
        {
          "indexed": true,
          "internalType": "address",
          "name": "sword",
          "type": "address"
        },
        {
          "indexed": true,
          "internalType": "uint256",
          "name": "tokenId",
          "type": "uint256"
        }
      ],
      "name": "ItemImported",
      "type": "event"
    },
    {
      "inputs": [
        {
          "internalType": "address",
          "name": "sword",
          "type": "address"
        },
        {
          "internalType": "uint256",
          "name": "tokenId",
          "type": "uint256"
        }
      ],
      "name": "exportItem",
      "outputs": [],
      "stateMutability": "nonpayable",
      "type": "function"
    },
    {
      "inputs": [
        {
          "internalType": "address",
          "name": "sword",
          "type": "address"
        },
        {
          "internalType": "uint256",
          "name": "tokenId",
          "type": "uint256"
        }
      ],
      "name": "importItem",
      "outputs": [],
      "stateMutability": "nonpayable",
      "type": "function"
    },
    {
      "inputs": [
        {
          "internalType": "address",
          "name": "",
          "type": "address"
        },
        {
          "internalType": "uint256",
          "name": "",
          "type": "uint256"
        }
      ],
      "name": "tokenOwners",
      "outputs": [
        {
          "internalType": "address",
          "name": "",
          "type": "address"
        }
      ],
      "stateMutability": "view",
      "type": "function"
    }
  ],
  "bytecode": "0x6080604052348015600f57600080fd5b5061065a8061001f6000396000f3fe608060405234801561001057600080fd5b50600436106100415760003560e01c806387a885c4146100465780638b5e51d214610062578063928abce614610092575b600080fd5b610060600480360381019061005b91906104d1565b6100ae565b005b61007c600480360381019061007791906104d1565b6101f3565b6040516100899190610520565b60405180910390f35b6100ac60048036038101906100a791906104d1565b610235565b005b8173ffffffffffffffffffffffffffffffffffffffff166323b872dd3330846040518463ffffffff1660e01b81526004016100eb9392919061054a565b600060405180830381600087803b15801561010557600080fd5b505af1158015610119573d6000803e3d6000fd5b50505050336000808473ffffffffffffffffffffffffffffffffffffffff1673ffffffffffffffffffffffffffffffffffffffff168152602001908152602001600020600083815260200190815260200160002060006101000a81548173ffffffffffffffffffffffffffffffffffffffff021916908373ffffffffffffffffffffffffffffffffffffffff160217905550808273ffffffffffffffffffffffffffffffffffffffff167f463561ef1e65ad6c24f4b108d244842b3bcc2cc7409771c7a16a9ef031c7687060405160405180910390a35050565b60006020528160005260406000206020528060005260406000206000915091509054906101000a900473ffffffffffffffffffffffffffffffffffffffff1681565b3373ffffffffffffffffffffffffffffffffffffffff166000808473ffffffffffffffffffffffffffffffffffffffff1673ffffffffffffffffffffffffffffffffffffffff168152602001908152602001600020600083815260200190815260200160002060009054906101000a900473ffffffffffffffffffffffffffffffffffffffff1673ffffffffffffffffffffffffffffffffffffffff1614610312576040517f08c379a000000000000000000000000000000000000000000000000000000000815260040161030990610604565b60405180910390fd5b8173ffffffffffffffffffffffffffffffffffffffff166323b872dd306000808673ffffffffffffffffffffffffffffffffffffffff1673ffffffffffffffffffffffffffffffffffffffff168152602001908152602001600020600085815260200190815260200160002060009054906101000a900473ffffffffffffffffffffffffffffffffffffffff16846040518463ffffffff1660e01b81526004016103be9392919061054a565b600060405180830381600087803b1580156103d857600080fd5b505af11580156103ec573d6000803e3d6000fd5b50505050808273ffffffffffffffffffffffffffffffffffffffff167f2601a4f37d1e1eaff827baad126891b72771c8316efb5eb5c8dfe3827c4a92fc60405160405180910390a35050565b600080fd5b600073ffffffffffffffffffffffffffffffffffffffff82169050919050565b60006104688261043d565b9050919050565b6104788161045d565b811461048357600080fd5b50565b6000813590506104958161046f565b92915050565b6000819050919050565b6104ae8161049b565b81146104b957600080fd5b50565b6000813590506104cb816104a5565b92915050565b600080604083850312156104e8576104e7610438565b5b60006104f685828601610486565b9250506020610507858286016104bc565b9150509250929050565b61051a8161045d565b82525050565b60006020820190506105356000830184610511565b92915050565b6105448161049b565b82525050565b600060608201905061055f6000830186610511565b61056c6020830185610511565b610579604083018461053b565b949350505050565b600082825260208201905092915050565b7f596f7520617265206e6f7420746865206f776e6572206f66207468697320697460008201527f656d000000000000000000000000000000000000000000000000000000000000602082015250565b60006105ee602283610581565b91506105f982610592565b604082019050919050565b6000602082019050818103600083015261061d816105e1565b905091905056fea264697066735822122034dab69699878eb81fbbac5fefe3ad47471682d1775741f8187a3a493c2eaa2e64736f6c634300081b0033",
  "linkReferences": {},
  "deployedLinkReferences": {}
}